{
  "_format": "hh-sol-artifact-1",
  "contractName": "EVoting",
  "sourceName": "contracts/EVoting.sol",
  "abi": [
    {
      "inputs": [
        {
          "internalType": "string[]",
          "name": "_candidateNames",
          "type": "string[]"
        }
      ],
      "stateMutability": "nonpayable",
      "type": "constructor"
    },
    {
      "anonymous": false,
      "inputs": [
        {
          "indexed": true,
          "internalType": "address",
          "name": "voter",
          "type": "address"
        },
        {
          "indexed": true,
          "internalType": "uint256",
          "name": "candidateId",
          "type": "uint256"
        }
      ],
      "name": "Voted",
      "type": "event"
    },
    {
      "anonymous": false,
      "inputs": [
        {
          "indexed": true,
          "internalType": "address",
          "name": "voter",
          "type": "address"
        }
      ],
      "name": "VoterWhitelisted",
      "type": "event"
    },
    {
      "inputs": [
        {
          "internalType": "address",
          "name": "",
          "type": "address"
        }
      ],
      "name": "allowedVoters",
      "outputs": [
        {
          "internalType": "bool",
          "name": "",
          "type": "bool"
        }
      ],
      "stateMutability": "view",
      "type": "function"
    },
    {
      "inputs": [
        {
          "internalType": "uint256",
          "name": "",
          "type": "uint256"
        }
      ],
      "name": "candidates",
      "outputs": [
        {
          "internalType": "uint256",
          "name": "id",
          "type": "uint256"
        },
        {
          "internalType": "string",
          "name": "name",
          "type": "string"
        },
        {
          "internalType": "uint256",
          "name": "voteCount",
          "type": "uint256"
        }
      ],
      "stateMutability": "view",
      "type": "function"
    },
    {
      "inputs": [
        {
          "internalType": "uint256",
          "name": "_id",
          "type": "uint256"
        }
      ],
      "name": "getCandidate",
      "outputs": [
        {
          "components": [
            {
              "internalType": "uint256",
              "name": "id",
              "type": "uint256"
            },
            {
              "internalType": "string",
              "name": "name",
              "type": "string"
            },
            {
              "internalType": "uint256",
              "name": "voteCount",
              "type": "uint256"
            }
          ],
          "internalType": "struct EVoting.Candidate",
          "name": "",
          "type": "tuple"
        }
      ],
      "stateMutability": "view",
      "type": "function"
    },
    {
      "inputs": [],
      "name": "getCandidates",
      "outputs": [
        {
          "components": [
            {
              "internalType": "uint256",
              "name": "id",
              "type": "uint256"
            },
            {
              "internalType": "string",
              "name": "name",
              "type": "string"
            },
            {
              "internalType": "uint256",
              "name": "voteCount",
              "type": "uint256"
            }
          ],
          "internalType": "struct EVoting.Candidate[]",
          "name": "",
          "type": "tuple[]"
        }
      ],
      "stateMutability": "view",
      "type": "function"
    },
    {
      "inputs": [],
      "name": "getCandidatesCount",
      "outputs": [
        {
          "internalType": "uint256",
          "name": "",
          "type": "uint256"
        }
      ],
      "stateMutability": "view",
      "type": "function"
    },
    {
      "inputs": [
        {
          "internalType": "address",
          "name": "",
          "type": "address"
        }
      ],
      "name": "hasVoted",
      "outputs": [
        {
          "internalType": "bool",
          "name": "",
          "type": "bool"
        }
      ],
      "stateMutability": "view",
      "type": "function"
    },
    {
      "inputs": [],
      "name": "owner",
      "outputs": [
        {
          "internalType": "address",
          "name": "",
          "type": "address"
        }
      ],
      "stateMutability": "view",
      "type": "function"
    },
    {
      "inputs": [
        {
          "internalType": "uint256",
          "name": "_candidateId",
          "type": "uint256"
        }
      ],
      "name": "vote",
      "outputs": [],
      "stateMutability": "nonpayable",
      "type": "function"
    },
    {
      "inputs": [
        {
          "internalType": "address",
          "name": "_voter",
          "type": "address"
        }
      ],
      "name": "whitelistVoter",
      "outputs": [],
      "stateMutability": "nonpayable",
      "type": "function"
    }
  ],
  "bytecode": "0x608060405234801561001057600080fd5b506040516116fd3803806116fd8339818101604052810190610032919061037a565b336000806101000a81548173ffffffffffffffffffffffffffffffffffffffff021916908373ffffffffffffffffffffffffffffffffffffffff16021790555060005b815181101561011857600360405180606001604052808381526020018484815181106100a4576100a36103c3565b5b60200260200101518152602001600081525090806001815401808255809150506001900390600052602060002090600302016000909190919091506000820151816000015560208201518160010190816100fe9190610613565b506040820151816002015550508080600101915050610075565b50506106e5565b6000604051905090565b600080fd5b600080fd5b600080fd5b6000601f19601f8301169050919050565b7f4e487b7100000000000000000000000000000000000000000000000000000000600052604160045260246000fd5b61018182610138565b810181811067ffffffffffffffff821117156101a05761019f610149565b5b80604052505050565b60006101b361011f565b90506101bf8282610178565b919050565b600067ffffffffffffffff8211156101df576101de610149565b5b602082029050602081019050919050565b600080fd5b600080fd5b600067ffffffffffffffff82111561021557610214610149565b5b61021e82610138565b9050602081019050919050565b60005b8381101561024957808201518184015260208101905061022e565b60008484015250505050565b6000610268610263846101fa565b6101a9565b905082815260208101848484011115610284576102836101f5565b5b61028f84828561022b565b509392505050565b600082601f8301126102ac576102ab610133565b5b81516102bc848260208601610255565b91505092915050565b60006102d86102d3846101c4565b6101a9565b905080838252602082019050602084028301858111156102fb576102fa6101f0565b5b835b8181101561034257805167ffffffffffffffff8111156103205761031f610133565b5b80860161032d8982610297565b855260208501945050506020810190506102fd565b5050509392505050565b600082601f83011261036157610360610133565b5b81516103718482602086016102c5565b91505092915050565b6000602082840312156103905761038f610129565b5b600082015167ffffffffffffffff8111156103ae576103ad61012e565b5b6103ba8482850161034c565b91505092915050565b7f4e487b7100000000000000000000000000000000000000000000000000000000600052603260045260246000fd5b600081519050919050565b7f4e487b7100000000000000000000000000000000000000000000000000000000600052602260045260246000fd5b6000600282049050600182168061044457607f821691505b602082108103610457576104566103fd565b5b50919050565b60008190508160005260206000209050919050565b60006020601f8301049050919050565b600082821b905092915050565b6000600883026104bf7fffffffffffffffffffffffffffffffffffffffffffffffffffffffffffffffff82610482565b6104c98683610482565b95508019841693508086168417925050509392505050565b6000819050919050565b6000819050919050565b600061051061050b610506846104e1565b6104eb565b6104e1565b9050919050565b6000819050919050565b61052a836104f5565b61053e61053682610517565b84845461048f565b825550505050565b600090565b610553610546565b61055e818484610521565b505050565b5b818110156105825761057760008261054b565b600181019050610564565b5050565b601f8211156105c7576105988161045d565b6105a184610472565b810160208510156105b0578190505b6105c46105bc85610472565b830182610563565b50505b505050565b600082821c905092915050565b60006105ea600019846008026105cc565b1980831691505092915050565b600061060383836105d9565b9150826002028217905092915050565b61061c826103f2565b67ffffffffffffffff81111561063557610634610149565b5b61063f825461042c565b61064a828285610586565b600060209050601f83116001811461067d576000841561066b578287015190505b61067585826105f7565b8655506106dd565b601f19841661068b8661045d565b60005b828110156106b35784890151825560018201915060208501945060208101905061068e565b868310156106d057848901516106cc601f8916826105d9565b8355505b6001600288020188555050505b505050505050565b611009806106f46000396000f3fe608060405234801561001057600080fd5b50600436106100935760003560e01c80633477ee2e116100665780633477ee2e1461013257806335b8e820146101645780638da5cb5b14610194578063bb9aa28f146101b2578063bddf1ce9146101d057610093565b80630121b93f1461009857806306a49fce146100b457806309eef43e146100d2578063255adfd414610102575b600080fd5b6100b260048036038101906100ad919061090e565b6101ec565b005b6100bc610426565b6040516100c99190610aec565b60405180910390f35b6100ec60048036038101906100e79190610b6c565b61052b565b6040516100f99190610bb4565b60405180910390f35b61011c60048036038101906101179190610b6c565b61054b565b6040516101299190610bb4565b60405180910390f35b61014c6004803603810190610147919061090e565b61056b565b60405161015b93929190610c28565b60405180910390f35b61017e6004803603810190610179919061090e565b61062d565b60405161018b9190610cb6565b60405180910390f35b61019c610756565b6040516101a99190610ce7565b60405180910390f35b6101ba61077a565b6040516101c79190610d02565b60405180910390f35b6101ea60048036038101906101e59190610b6c565b610787565b005b600160003373ffffffffffffffffffffffffffffffffffffffff1673ffffffffffffffffffffffffffffffffffffffff16815260200190815260200160002060009054906101000a900460ff16610278576040517f08c379a000000000000000000000000000000000000000000000000000000000815260040161026f90610d69565b60405180910390fd5b600260003373ffffffffffffffffffffffffffffffffffffffff1673ffffffffffffffffffffffffffffffffffffffff16815260200190815260200160002060009054906101000a900460ff1615610305576040517f08c379a00000000000000000000000000000000000000000000000000000000081526004016102fc90610dd5565b60405180910390fd5b600380549050811061034c576040517f08c379a000000000000000000000000000000000000000000000000000000000815260040161034390610e41565b60405180910390fd5b6001600260003373ffffffffffffffffffffffffffffffffffffffff1673ffffffffffffffffffffffffffffffffffffffff16815260200190815260200160002060006101000a81548160ff021916908315150217905550600381815481106103b8576103b7610e61565b5b906000526020600020906003020160020160008154809291906103da90610ebf565b9190505550803373ffffffffffffffffffffffffffffffffffffffff167f4d99b957a2bc29a30ebd96a7be8e68fe50a3c701db28a91436490b7d53870ca460405160405180910390a350565b60606003805480602002602001604051908101604052809291908181526020016000905b8282101561052257838290600052602060002090600302016040518060600160405290816000820154815260200160018201805461048790610f36565b80601f01602080910402602001604051908101604052809291908181526020018280546104b390610f36565b80156105005780601f106104d557610100808354040283529160200191610500565b820191906000526020600020905b8154815290600101906020018083116104e357829003601f168201915b505050505081526020016002820154815250508152602001906001019061044a565b50505050905090565b60026020528060005260406000206000915054906101000a900460ff1681565b60016020528060005260406000206000915054906101000a900460ff1681565b6003818154811061057b57600080fd5b90600052602060002090600302016000915090508060000154908060010180546105a490610f36565b80601f01602080910402602001604051908101604052809291908181526020018280546105d090610f36565b801561061d5780601f106105f25761010080835404028352916020019161061d565b820191906000526020600020905b81548152906001019060200180831161060057829003601f168201915b5050505050908060020154905083565b6106356108b2565b600380549050821061067c576040517f08c379a000000000000000000000000000000000000000000000000000000000815260040161067390610e41565b60405180910390fd5b600382815481106106905761068f610e61565b5b9060005260206000209060030201604051806060016040529081600082015481526020016001820180546106c390610f36565b80601f01602080910402602001604051908101604052809291908181526020018280546106ef90610f36565b801561073c5780601f106107115761010080835404028352916020019161073c565b820191906000526020600020905b81548152906001019060200180831161071f57829003601f168201915b505050505081526020016002820154815250509050919050565b60008054906101000a900473ffffffffffffffffffffffffffffffffffffffff1681565b6000600380549050905090565b60008054906101000a900473ffffffffffffffffffffffffffffffffffffffff1673ffffffffffffffffffffffffffffffffffffffff163373ffffffffffffffffffffffffffffffffffffffff1614610815576040517f08c379a000000000000000000000000000000000000000000000000000000000815260040161080c90610fb3565b60405180910390fd5b60018060008373ffffffffffffffffffffffffffffffffffffffff1673ffffffffffffffffffffffffffffffffffffffff16815260200190815260200160002060006101000a81548160ff0219169083151502179055508073ffffffffffffffffffffffffffffffffffffffff167f5cb979827581f5a2d6accf830511f42bc79705dde54d001643bb14fea7f75d5860405160405180910390a250565b60405180606001604052806000815260200160608152602001600081525090565b600080fd5b6000819050919050565b6108eb816108d8565b81146108f657600080fd5b50565b600081359050610908816108e2565b92915050565b600060208284031215610924576109236108d3565b5b6000610932848285016108f9565b91505092915050565b600081519050919050565b600082825260208201905092915050565b6000819050602082019050919050565b610970816108d8565b82525050565b600081519050919050565b600082825260208201905092915050565b60005b838110156109b0578082015181840152602081019050610995565b60008484015250505050565b6000601f19601f8301169050919050565b60006109d882610976565b6109e28185610981565b93506109f2818560208601610992565b6109fb816109bc565b840191505092915050565b6000606083016000830151610a1e6000860182610967565b5060208301518482036020860152610a3682826109cd565b9150506040830151610a4b6040860182610967565b508091505092915050565b6000610a628383610a06565b905092915050565b6000602082019050919050565b6000610a828261093b565b610a8c8185610946565b935083602082028501610a9e85610957565b8060005b85811015610ada5784840389528151610abb8582610a56565b9450610ac683610a6a565b925060208a01995050600181019050610aa2565b50829750879550505050505092915050565b60006020820190508181036000830152610b068184610a77565b905092915050565b600073ffffffffffffffffffffffffffffffffffffffff82169050919050565b6000610b3982610b0e565b9050919050565b610b4981610b2e565b8114610b5457600080fd5b50565b600081359050610b6681610b40565b92915050565b600060208284031215610b8257610b816108d3565b5b6000610b9084828501610b57565b91505092915050565b60008115159050919050565b610bae81610b99565b82525050565b6000602082019050610bc96000830184610ba5565b92915050565b610bd8816108d8565b82525050565b600082825260208201905092915050565b6000610bfa82610976565b610c048185610bde565b9350610c14818560208601610992565b610c1d816109bc565b840191505092915050565b6000606082019050610c3d6000830186610bcf565b8181036020830152610c4f8185610bef565b9050610c5e6040830184610bcf565b949350505050565b6000606083016000830151610c7e6000860182610967565b5060208301518482036020860152610c9682826109cd565b9150506040830151610cab6040860182610967565b508091505092915050565b60006020820190508181036000830152610cd08184610c66565b905092915050565b610ce181610b2e565b82525050565b6000602082019050610cfc6000830184610cd8565b92915050565b6000602082019050610d176000830184610bcf565b92915050565b7f4e6f742077686974656c69737465640000000000000000000000000000000000600082015250565b6000610d53600f83610bde565b9150610d5e82610d1d565b602082019050919050565b60006020820190508181036000830152610d8281610d46565b9050919050565b7f416c726561647920766f74656400000000000000000000000000000000000000600082015250565b6000610dbf600d83610bde565b9150610dca82610d89565b602082019050919050565b60006020820190508181036000830152610dee81610db2565b9050919050565b7f496e76616c69642063616e646964617465204944000000000000000000000000600082015250565b6000610e2b601483610bde565b9150610e3682610df5565b602082019050919050565b60006020820190508181036000830152610e5a81610e1e565b9050919050565b7f4e487b7100000000000000000000000000000000000000000000000000000000600052603260045260246000fd5b7f4e487b7100000000000000000000000000000000000000000000000000000000600052601160045260246000fd5b6000610eca826108d8565b91507fffffffffffffffffffffffffffffffffffffffffffffffffffffffffffffffff8203610efc57610efb610e90565b5b600182019050919050565b7f4e487b7100000000000000000000000000000000000000000000000000000000600052602260045260246000fd5b60006002820490506001821680610f4e57607f821691505b602082108103610f6157610f60610f07565b5b50919050565b7f4f6e6c79206f776e65722063616e2063616c6c20746869730000000000000000600082015250565b6000610f9d601883610bde565b9150610fa882610f67565b602082019050919050565b60006020820190508181036000830152610fcc81610f90565b905091905056fea2646970667358221220aa484d2a92cbe5b33ff14cc10bb69eaa987f41ba074b647f24792487188396ec64736f6c634300081b0033",
  "linkReferences": {},
  "deployedLinkReferences": {}
}